:100000000C94340018950000189500001895000015
:10001000189500001895000018950000189500002C
:10002000189500001895000018950000189500001C
:10003000189500001895000018950000189500000C
:1000400018950000189500001895000018950000FC
:1000500018950000189500001895000018950000EC
:1000600018950000189500008FEF8DBFC0EEE6ECEC
:100070004E2E84E08EBFD4E0F4E05F2EEEEFF3E08E
:10008000A0E0B1E0A89584B7082E877F84BF88E1FF
:100090009927809360009093600088278D93319713
:1000A000E9F783E08093C40080E08093C50088E195
:1000B0008093C100662486E880937A0080E0809374
:1000C0007C0070917A00706870937A00229A80E0C8
:1000D0008093020100917C00007FA2E0B1E08C914E
:1000E00090E0890F082700937C000E94E100A0E0C7
:1000F000B1E08D939C93E6ECF2E00E94B800AEEA8A
:10010000B4E0E2E0F1E00E9419010E94B000E0EDED
:10011000F2E00E94B800AEEAB4E0E0E0F1E00E9454
:100120000A010E94B0000E94BF00A2E0B1E08C91E1
:100130008F5F8C9300910201073018F011F00C943E
:10014000A3000C94A60080E08093020184E190E07B
:100150000E94D20084E083B90C946A00F894FFCF27
:10016000AEEAB4E08D91882311F00CD0FBCF089556
:100170000E94F800802D11F005D0FACF08958DE08F
:1001800001D08AE00090C00005FEFCCF8093C6003D
:1001900008953197F1F70895689462F80895E89406
:1001A00062F80895EF93FF93EE27E82BE92B31F0E7
:1001B000E3E3F7E03197F1F70197D1F7FF91EF9182
:1001C000089570917A00706470937A0000907A00BC
:1001D00006FCFCCF70917A00706470937A000090F6
:1001E0007A0006FCFCCF8091780090917900089508
:1001F000C895319600200895000F111F221F331F4C
:10020000089500951095209530950F5F1F4F2F4F43
:100210003F4F0895019110810EC0019111912191DC
:1002200030810BC00191108117FF05C03FEF2FEF08
:1002300004C0008111272227332737FF03C0E1DFE5
:100240008DE28D93CF93DF93CF92DF92EF92AA242A
:10025000BB24CC24DD24EE2440E2CAE0DD2755E0B7
:1002600093E38881890F87FD9F7083FD907F891BB1
:1002700089935A95A9F7C0DFAA1CBB1CCC1CDD1CB6
:10028000EE1C4A9551F7E894EFE0FF2782910ED0DB
:10029000EB30E0F71EF068948A2D0CD088278D9300
:1002A000EF90DF90CF90DF91CF910895982F8295B6
:1002B00001D0892F8F70805D26F0803309F4089576
:1002C00068948D9308954368616E6E656C2000009C
:0802D0002076616C75652000C9
:00000001FF
